{
  "abi": [
    {
      "inputs": [
        {
          "internalType": "address",
          "name": "_nftContract",
          "type": "address"
        }
      ],
      "stateMutability": "nonpayable",
      "type": "constructor"
    },
    {
      "anonymous": false,
      "inputs": [
        {
          "indexed": true,
          "internalType": "uint256",
          "name": "tokenId",
          "type": "uint256"
        },
        {
          "indexed": true,
          "internalType": "address",
          "name": "seller",
          "type": "address"
        },
        {
          "indexed": false,
          "internalType": "uint256",
          "name": "price",
          "type": "uint256"
        }
      ],
      "name": "NFTListed",
      "type": "event"
    },
    {
      "anonymous": false,
      "inputs": [
        {
          "indexed": true,
          "internalType": "uint256",
          "name": "tokenId",
          "type": "uint256"
        },
        {
          "indexed": true,
          "internalType": "address",
          "name": "buyer",
          "type": "address"
        },
        {
          "indexed": false,
          "internalType": "uint256",
          "name": "price",
          "type": "uint256"
        }
      ],
      "name": "NFTSold",
      "type": "event"
    },
    {
      "inputs": [],
      "name": "erctoken",
      "outputs": [
        {
          "internalType": "contract ERC20Token",
          "name": "",
          "type": "address"
        }
      ],
      "stateMutability": "view",
      "type": "function"
    },
    {
      "inputs": [
        {
          "internalType": "uint256",
          "name": "_tokenId",
          "type": "uint256"
        },
        {
          "internalType": "uint256",
          "name": "_price",
          "type": "uint256"
        }
      ],
      "name": "listNFT",
      "outputs": [],
      "stateMutability": "nonpayable",
      "type": "function"
    },
    {
      "inputs": [
        {
          "internalType": "uint256",
          "name": "",
          "type": "uint256"
        }
      ],
      "name": "listings",
      "outputs": [
        {
          "internalType": "uint256",
          "name": "tokenId",
          "type": "uint256"
        },
        {
          "internalType": "uint256",
          "name": "price",
          "type": "uint256"
        },
        {
          "internalType": "address",
          "name": "seller",
          "type": "address"
        },
        {
          "internalType": "bool",
          "name": "active",
          "type": "bool"
        },
        {
          "internalType": "uint256",
          "name": "balance",
          "type": "uint256"
        }
      ],
      "stateMutability": "view",
      "type": "function"
    },
    {
      "inputs": [],
      "name": "nftContract",
      "outputs": [
        {
          "internalType": "contract ERC721",
          "name": "",
          "type": "address"
        }
      ],
      "stateMutability": "view",
      "type": "function"
    },
    {
      "inputs": [
        {
          "internalType": "uint256",
          "name": "_tokenId",
          "type": "uint256"
        }
      ],
      "name": "purchaseOneFractionNFT",
      "outputs": [],
      "stateMutability": "payable",
      "type": "function"
    },
    {
      "inputs": [
        {
          "internalType": "uint256",
          "name": "_tokenId",
          "type": "uint256"
        }
      ],
      "name": "purchaseWholeNFT",
      "outputs": [],
      "stateMutability": "payable",
      "type": "function"
    }
  ],
  "bytecode": {
    "object": "0x6080604052662386f26fc100006003556064600455670de0b6b3a764000060055534801561002c57600080fd5b5060405161183338038061183383398101604081905261004b916100b5565b604051610057906100a8565b604051809103906000f080158015610073573d6000803e3d6000fd5b50600180546001600160a01b039283166001600160a01b031991821617909155600080549390921692169190911790556100e5565b610e998061099a83390190565b6000602082840312156100c757600080fd5b81516001600160a01b03811681146100de57600080fd5b9392505050565b6108a6806100f46000396000f3fe6080604052600436106100555760003560e01c80632d9a53531461005a578063616da229146100975780636acf08d0146100ac57806394383f14146100bf578063d56d229d146100df578063de74e57b146100ff575b600080fd5b34801561006657600080fd5b5060015461007a906001600160a01b031681565b6040516001600160a01b0390911681526020015b60405180910390f35b6100aa6100a536600461078a565b61018d565b005b6100aa6100ba36600461078a565b6103fe565b3480156100cb57600080fd5b506100aa6100da3660046107a3565b6105a5565b3480156100eb57600080fd5b5060005461007a906001600160a01b031681565b34801561010b57600080fd5b5061015761011a36600461078a565b6006602052600090815260409020805460018201546002830154600390930154919290916001600160a01b03821691600160a01b900460ff169085565b6040805195865260208601949094526001600160a01b03909216928401929092529015156060830152608082015260a00161008e565b60008181526006602052604090206002810154600160a01b900460ff166101ef5760405162461bcd60e51b8152602060048201526011602482015270139195081a5cc81b9bdd081b1a5cdd1959607a1b60448201526064015b60405180910390fd5b600554341461023a5760405162461bcd60e51b8152602060048201526017602482015276125b9cdd59999a58da595b9d08199d5b991cc81cd95b9d604a1b60448201526064016101e6565b60028101546003820180546001600160a01b03909216913491906000906102629084906107db565b9091555050600054604051632142170760e11b81526001600160a01b03838116600483015233602483015260448201869052909116906342842e0e90606401600060405180830381600087803b1580156102bb57600080fd5b505af11580156102cf573d6000803e3d6000fd5b50506040516340c10f1960e01b8152336004820152670de0b6b3a764000060248201526001600160a01b03841692506340c10f199150604401600060405180830381600087803b15801561032257600080fd5b505af1158015610336573d6000803e3d6000fd5b505050506000600a8360030154600161034f91906107f4565b610359919061080b565b905060008190506000828560030154610372919061082d565b6040519091506001600160a01b0385169082156108fc029083906000818181858888f193505050501580156103ab573d6000803e3d6000fd5b506002546040516001600160a01b039091169083156108fc029084906000818181858888f193505050501580156103e6573d6000803e3d6000fd5b5050506002909201805460ff60a01b19169055505050565b60008181526006602052604090206002810154600160a01b900460ff1661045b5760405162461bcd60e51b8152602060048201526011602482015270139195081a5cc81b9bdd081b1a5cdd1959607a1b60448201526064016101e6565b60035434146104a65760405162461bcd60e51b8152602060048201526017602482015276125b9cdd59999a58da595b9d08199d5b991cc81cd95b9d604a1b60448201526064016101e6565b60028101546003820180546001600160a01b03909216913491906000906104ce9084906107db565b90915550506003820154600090600a906104e99060016107f4565b6104f3919061080b565b90506000819050600082856003015461050c919061082d565b6040516340c10f1960e01b8152336004820152606460248201529091506001600160a01b038516906340c10f1990604401600060405180830381600087803b15801561055757600080fd5b505af115801561056b573d6000803e3d6000fd5b50506040516001600160a01b038716925083156108fc02915083906000818181858888f193505050501580156103ab573d6000803e3d6000fd5b6000546040516331a9108f60e11b81526004810184905233916001600160a01b031690636352211e90602401602060405180830381865afa1580156105ee573d6000803e3d6000fd5b505050506040513d601f19601f820116820180604052508101906106129190610840565b6001600160a01b0316146106685760405162461bcd60e51b815260206004820152601760248201527f596f7520646f206e6f74206f776e2074686973204e465400000000000000000060448201526064016101e6565b600082815260066020526040902060020154600160a01b900460ff16156106c95760405162461bcd60e51b8152602060048201526015602482015274139195081a5cc8185b1c9958591e481b1a5cdd1959605a1b60448201526064016101e6565b6040805160a0810182528381526020808201848152338385018181526001606086018181526000608088018181528b82526006909752889020965187559351908601555160028501805493511515600160a01b026001600160a81b03199094166001600160a01b039290921691909117929092179091559051600390920191909155905183907f5f9c03de076f5063cd3ebcfe8ef7aa8af378e4b35a83c77ba9777e97083879a29061077e9085815260200190565b60405180910390a35050565b60006020828403121561079c57600080fd5b5035919050565b600080604083850312156107b657600080fd5b50508035926020909101359150565b634e487b7160e01b600052601160045260246000fd5b808201808211156107ee576107ee6107c5565b92915050565b80820281158282048414176107ee576107ee6107c5565b60008261082857634e487b7160e01b600052601260045260246000fd5b500490565b818103818111156107ee576107ee6107c5565b60006020828403121561085257600080fd5b81516001600160a01b038116811461086957600080fd5b939250505056fea2646970667358221220df332c4294d27600e093f69b3c0b00961cbd35a9b5eef8eb585c3155578b57ea64736f6c6343000815003360e06040523480156200001157600080fd5b5060405180604001604052806006815260200165544f4b454e4160d01b81525060405180604001604052806004815260200163544b4e4160e01b81525060128260009081620000619190620001e5565b506001620000708382620001e5565b5060ff81166080524660a05262000086620000a4565b60c0525050600680546001600160a01b03191633179055506200032f565b60007f8b73c3c69bb8fe3d512ecc4cf759cc79239f7b179b0ffacaa9a75d522b39400f6000604051620000d89190620002b1565b6040805191829003822060208301939093528101919091527fc89efdaa54c0f20c7adf612882df0950f5a951637e0307cdcb4c672f298b8bc660608201524660808201523060a082015260c00160405160208183030381529060405280519060200120905090565b634e487b7160e01b600052604160045260246000fd5b600181811c908216806200016b57607f821691505b6020821081036200018c57634e487b7160e01b600052602260045260246000fd5b50919050565b601f821115620001e057600081815260208120601f850160051c81016020861015620001bb5750805b601f850160051c820191505b81811015620001dc57828155600101620001c7565b5050505b505050565b81516001600160401b0381111562000201576200020162000140565b620002198162000212845462000156565b8462000192565b602080601f831160018114620002515760008415620002385750858301515b600019600386901b1c1916600185901b178555620001dc565b600085815260208120601f198616915b82811015620002825788860151825594840194600190910190840162000261565b5085821015620002a15787850151600019600388901b60f8161c191681555b5050505050600190811b01905550565b6000808354620002c18162000156565b60018281168015620002dc5760018114620002f25762000323565b60ff198416875282151583028701945062000323565b8760005260208060002060005b858110156200031a5781548a820152908401908201620002ff565b50505082870194505b50929695505050505050565b60805160a05160c051610b3a6200035f60003960006104540152600061041f015260006101440152610b3a6000f3fe608060405234801561001057600080fd5b50600436106100cf5760003560e01c806340c10f191161008c57806395d89b411161006657806395d89b41146101d5578063a9059cbb146101dd578063d505accf146101f0578063dd62ed3e1461020357600080fd5b806340c10f191461018057806370a08231146101955780637ecebe00146101b557600080fd5b806306fdde03146100d4578063095ea7b3146100f257806318160ddd1461011557806323b872dd1461012c578063313ce5671461013f5780633644e51514610178575b600080fd5b6100dc61022e565b6040516100e99190610857565b60405180910390f35b6101056101003660046108c1565b6102bc565b60405190151581526020016100e9565b61011e60025481565b6040519081526020016100e9565b61010561013a3660046108eb565b610329565b6101667f000000000000000000000000000000000000000000000000000000000000000081565b60405160ff90911681526020016100e9565b61011e61041b565b61019361018e3660046108c1565b610476565b005b61011e6101a3366004610927565b60036020526000908152604090205481565b61011e6101c3366004610927565b60056020526000908152604090205481565b6100dc610484565b6101056101eb3660046108c1565b610491565b6101936101fe366004610949565b610509565b61011e6102113660046109bc565b600460209081526000928352604080842090915290825290205481565b6000805461023b906109ef565b80601f0160208091040260200160405190810160405280929190818152602001828054610267906109ef565b80156102b45780601f10610289576101008083540402835291602001916102b4565b820191906000526020600020905b81548152906001019060200180831161029757829003601f168201915b505050505081565b3360008181526004602090815260408083206001600160a01b038716808552925280832085905551919290917f8c5be1e5ebec7d5bd14f71427d1e84f3dd0314c0f7b2291e5b200ac8c7c3b925906103179086815260200190565b60405180910390a35060015b92915050565b6001600160a01b03831660009081526004602090815260408083203384529091528120546000198114610385576103608382610a3f565b6001600160a01b03861660009081526004602090815260408083203384529091529020555b6001600160a01b038516600090815260036020526040812080548592906103ad908490610a3f565b90915550506001600160a01b03808516600081815260036020526040908190208054870190555190918716907fddf252ad1be2c89b69c2b068fc378daa952ba7f163c4a11628f55a4df523b3ef906104089087815260200190565b60405180910390a3506001949350505050565b60007f000000000000000000000000000000000000000000000000000000000000000046146104515761044c610752565b905090565b507f000000000000000000000000000000000000000000000000000000000000000090565b61048082826107ec565b5050565b6001805461023b906109ef565b336000908152600360205260408120805483919083906104b2908490610a3f565b90915550506001600160a01b038316600081815260036020526040908190208054850190555133907fddf252ad1be2c89b69c2b068fc378daa952ba7f163c4a11628f55a4df523b3ef906103179086815260200190565b4284101561055e5760405162461bcd60e51b815260206004820152601760248201527f5045524d49545f444541444c494e455f4558504952454400000000000000000060448201526064015b60405180910390fd5b6000600161056a61041b565b6001600160a01b038a811660008181526005602090815260409182902080546001810190915582517f6e71edae12b1b97f4d1f60370fef10105fa2faae0126114a169c64845d6126c98184015280840194909452938d166060840152608083018c905260a083019390935260c08083018b90528151808403909101815260e08301909152805192019190912061190160f01b6101008301526101028201929092526101228101919091526101420160408051601f198184030181528282528051602091820120600084529083018083525260ff871690820152606081018590526080810184905260a0016020604051602081039080840390855afa158015610676573d6000803e3d6000fd5b5050604051601f1901519150506001600160a01b038116158015906106ac5750876001600160a01b0316816001600160a01b0316145b6106e95760405162461bcd60e51b815260206004820152600e60248201526d24a72b20a624a22fa9a4a3a722a960911b6044820152606401610555565b6001600160a01b0390811660009081526004602090815260408083208a8516808552908352928190208990555188815291928a16917f8c5be1e5ebec7d5bd14f71427d1e84f3dd0314c0f7b2291e5b200ac8c7c3b925910160405180910390a350505050505050565b60007f8b73c3c69bb8fe3d512ecc4cf759cc79239f7b179b0ffacaa9a75d522b39400f60006040516107849190610a52565b6040805191829003822060208301939093528101919091527fc89efdaa54c0f20c7adf612882df0950f5a951637e0307cdcb4c672f298b8bc660608201524660808201523060a082015260c00160405160208183030381529060405280519060200120905090565b80600260008282546107fe9190610af1565b90915550506001600160a01b0382166000818152600360209081526040808320805486019055518481527fddf252ad1be2c89b69c2b068fc378daa952ba7f163c4a11628f55a4df523b3ef910160405180910390a35050565b600060208083528351808285015260005b8181101561088457858101830151858201604001528201610868565b506000604082860101526040601f19601f8301168501019250505092915050565b80356001600160a01b03811681146108bc57600080fd5b919050565b600080604083850312156108d457600080fd5b6108dd836108a5565b946020939093013593505050565b60008060006060848603121561090057600080fd5b610909846108a5565b9250610917602085016108a5565b9150604084013590509250925092565b60006020828403121561093957600080fd5b610942826108a5565b9392505050565b600080600080600080600060e0888a03121561096457600080fd5b61096d886108a5565b965061097b602089016108a5565b95506040880135945060608801359350608088013560ff8116811461099f57600080fd5b9699959850939692959460a0840135945060c09093013592915050565b600080604083850312156109cf57600080fd5b6109d8836108a5565b91506109e6602084016108a5565b90509250929050565b600181811c90821680610a0357607f821691505b602082108103610a2357634e487b7160e01b600052602260045260246000fd5b50919050565b634e487b7160e01b600052601160045260246000fd5b8181038181111561032357610323610a29565b600080835481600182811c915080831680610a6e57607f831692505b60208084108203610a8d57634e487b7160e01b86526022600452602486fd5b818015610aa15760018114610ab657610ae3565b60ff1986168952841515850289019650610ae3565b60008a81526020902060005b86811015610adb5781548b820152908501908301610ac2565b505084890196505b509498975050505050505050565b8082018082111561032357610323610a2956fea26469706673582212209a812863ab43996eeef5c833ea421a0026ca6bc2acaee0a8e69a69a8d7d95b6b64736f6c63430008150033",
    "linkReferences": {}
  },
  "methodIdentifiers": {
    "erctoken()": "2d9a5353",
    "listNFT(uint256,uint256)": "94383f14",
    "listings(uint256)": "de74e57b",
    "nftContract()": "d56d229d",
    "purchaseOneFractionNFT(uint256)": "6acf08d0",
    "purchaseWholeNFT(uint256)": "616da229"
  },
  "id": 2
}